{
  "_format": "hh-sol-artifact-1",
  "contractName": "PostAndVote",
  "sourceName": "contracts/Postandvote.sol",
  "abi": [
    {
      "inputs": [],
      "stateMutability": "nonpayable",
      "type": "constructor"
    },
    {
      "anonymous": false,
      "inputs": [
        {
          "indexed": true,
          "internalType": "address",
          "name": "owner",
          "type": "address"
        },
        {
          "indexed": true,
          "internalType": "address",
          "name": "approved",
          "type": "address"
        },
        {
          "indexed": true,
          "internalType": "uint256",
          "name": "tokenId",
          "type": "uint256"
        }
      ],
      "name": "Approval",
      "type": "event"
    },
    {
      "anonymous": false,
      "inputs": [
        {
          "indexed": true,
          "internalType": "address",
          "name": "owner",
          "type": "address"
        },
        {
          "indexed": true,
          "internalType": "address",
          "name": "operator",
          "type": "address"
        },
        {
          "indexed": false,
          "internalType": "bool",
          "name": "approved",
          "type": "bool"
        }
      ],
      "name": "ApprovalForAll",
      "type": "event"
    },
    {
      "anonymous": false,
      "inputs": [
        {
          "indexed": false,
          "internalType": "uint256",
          "name": "_fromTokenId",
          "type": "uint256"
        },
        {
          "indexed": false,
          "internalType": "uint256",
          "name": "_toTokenId",
          "type": "uint256"
        }
      ],
      "name": "BatchMetadataUpdate",
      "type": "event"
    },
    {
      "anonymous": false,
      "inputs": [
        {
          "indexed": true,
          "internalType": "uint256",
          "name": "id",
          "type": "uint256"
        },
        {
          "indexed": false,
          "internalType": "string",
          "name": "name",
          "type": "string"
        },
        {
          "indexed": false,
          "internalType": "string",
          "name": "category",
          "type": "string"
        },
        {
          "indexed": false,
          "internalType": "uint256",
          "name": "maxParticipants",
          "type": "uint256"
        }
      ],
      "name": "EventCreated",
      "type": "event"
    },
    {
      "anonymous": false,
      "inputs": [
        {
          "indexed": true,
          "internalType": "uint256",
          "name": "id",
          "type": "uint256"
        },
        {
          "indexed": true,
          "internalType": "address",
          "name": "participant",
          "type": "address"
        },
        {
          "indexed": false,
          "internalType": "string",
          "name": "image",
          "type": "string"
        },
        {
          "indexed": false,
          "internalType": "string",
          "name": "caption",
          "type": "string"
        }
      ],
      "name": "ImageUploaded",
      "type": "event"
    },
    {
      "anonymous": false,
      "inputs": [
        {
          "indexed": true,
          "internalType": "uint256",
          "name": "id",
          "type": "uint256"
        },
        {
          "indexed": true,
          "internalType": "address",
          "name": "participant",
          "type": "address"
        }
      ],
      "name": "JoinedEvent",
      "type": "event"
    },
    {
      "anonymous": false,
      "inputs": [
        {
          "indexed": false,
          "internalType": "uint256",
          "name": "_tokenId",
          "type": "uint256"
        }
      ],
      "name": "MetadataUpdate",
      "type": "event"
    },
    {
      "anonymous": false,
      "inputs": [
        {
          "indexed": true,
          "internalType": "uint256",
          "name": "id",
          "type": "uint256"
        },
        {
          "indexed": false,
          "internalType": "string",
          "name": "hash",
          "type": "string"
        },
        {
          "indexed": false,
          "internalType": "uint256",
          "name": "tipAmount",
          "type": "uint256"
        },
        {
          "indexed": true,
          "internalType": "address",
          "name": "author",
          "type": "address"
        }
      ],
      "name": "PostCreated",
      "type": "event"
    },
    {
      "anonymous": false,
      "inputs": [
        {
          "indexed": true,
          "internalType": "uint256",
          "name": "id",
          "type": "uint256"
        },
        {
          "indexed": false,
          "internalType": "string",
          "name": "hash",
          "type": "string"
        },
        {
          "indexed": false,
          "internalType": "uint256",
          "name": "tipAmount",
          "type": "uint256"
        },
        {
          "indexed": true,
          "internalType": "address",
          "name": "author",
          "type": "address"
        }
      ],
      "name": "PostTipped",
      "type": "event"
    },
    {
      "anonymous": false,
      "inputs": [
        {
          "indexed": true,
          "internalType": "address",
          "name": "user",
          "type": "address"
        },
        {
          "indexed": true,
          "internalType": "uint256",
          "name": "tokenId",
          "type": "uint256"
        }
      ],
      "name": "ProfileSet",
      "type": "event"
    },
    {
      "anonymous": false,
      "inputs": [
        {
          "indexed": true,
          "internalType": "address",
          "name": "from",
          "type": "address"
        },
        {
          "indexed": true,
          "internalType": "address",
          "name": "to",
          "type": "address"
        },
        {
          "indexed": true,
          "internalType": "uint256",
          "name": "tokenId",
          "type": "uint256"
        }
      ],
      "name": "Transfer",
      "type": "event"
    },
    {
      "inputs": [
        {
          "internalType": "address",
          "name": "to",
          "type": "address"
        },
        {
          "internalType": "uint256",
          "name": "tokenId",
          "type": "uint256"
        }
      ],
      "name": "approve",
      "outputs": [],
      "stateMutability": "nonpayable",
      "type": "function"
    },
    {
      "inputs": [
        {
          "internalType": "address",
          "name": "owner",
          "type": "address"
        }
      ],
      "name": "balanceOf",
      "outputs": [
        {
          "internalType": "uint256",
          "name": "",
          "type": "uint256"
        }
      ],
      "stateMutability": "view",
      "type": "function"
    },
    {
      "inputs": [
        {
          "internalType": "string",
          "name": "_name",
          "type": "string"
        },
        {
          "internalType": "string",
          "name": "_category",
          "type": "string"
        },
        {
          "internalType": "uint256",
          "name": "_maxParticipants",
          "type": "uint256"
        }
      ],
      "name": "createEvent",
      "outputs": [],
      "stateMutability": "nonpayable",
      "type": "function"
    },
    {
      "inputs": [],
      "name": "eventCount",
      "outputs": [
        {
          "internalType": "uint256",
          "name": "",
          "type": "uint256"
        }
      ],
      "stateMutability": "view",
      "type": "function"
    },
    {
      "inputs": [
        {
          "internalType": "uint256",
          "name": "",
          "type": "uint256"
        },
        {
          "internalType": "address",
          "name": "",
          "type": "address"
        }
      ],
      "name": "eventParticipants",
      "outputs": [
        {
          "internalType": "bool",
          "name": "",
          "type": "bool"
        }
      ],
      "stateMutability": "view",
      "type": "function"
    },
    {
      "inputs": [
        {
          "internalType": "uint256",
          "name": "",
          "type": "uint256"
        }
      ],
      "name": "events",
      "outputs": [
        {
          "internalType": "uint256",
          "name": "id",
          "type": "uint256"
        },
        {
          "internalType": "string",
          "name": "name",
          "type": "string"
        },
        {
          "internalType": "string",
          "name": "category",
          "type": "string"
        },
        {
          "internalType": "uint256",
          "name": "maxParticipants",
          "type": "uint256"
        }
      ],
      "stateMutability": "view",
      "type": "function"
    },
    {
      "inputs": [],
      "name": "getAllPosts",
      "outputs": [
        {
          "components": [
            {
              "internalType": "uint256",
              "name": "id",
              "type": "uint256"
            },
            {
              "internalType": "string",
              "name": "hash",
              "type": "string"
            },
            {
              "internalType": "uint256",
              "name": "tipAmount",
              "type": "uint256"
            },
            {
              "internalType": "address payable",
              "name": "author",
              "type": "address"
            }
          ],
          "internalType": "struct Decentratwitter.Post[]",
          "name": "",
          "type": "tuple[]"
        }
      ],
      "stateMutability": "view",
      "type": "function"
    },
    {
      "inputs": [
        {
          "internalType": "uint256",
          "name": "tokenId",
          "type": "uint256"
        }
      ],
      "name": "getApproved",
      "outputs": [
        {
          "internalType": "address",
          "name": "",
          "type": "address"
        }
      ],
      "stateMutability": "view",
      "type": "function"
    },
    {
      "inputs": [],
      "name": "getMyNfts",
      "outputs": [
        {
          "internalType": "uint256[]",
          "name": "",
          "type": "uint256[]"
        }
      ],
      "stateMutability": "view",
      "type": "function"
    },
    {
      "inputs": [
        {
          "internalType": "address",
          "name": "owner",
          "type": "address"
        },
        {
          "internalType": "address",
          "name": "operator",
          "type": "address"
        }
      ],
      "name": "isApprovedForAll",
      "outputs": [
        {
          "internalType": "bool",
          "name": "",
          "type": "bool"
        }
      ],
      "stateMutability": "view",
      "type": "function"
    },
    {
      "inputs": [
        {
          "internalType": "uint256",
          "name": "_eventId",
          "type": "uint256"
        }
      ],
      "name": "joinEvent",
      "outputs": [],
      "stateMutability": "payable",
      "type": "function"
    },
    {
      "inputs": [
        {
          "internalType": "string",
          "name": "_tokenURI",
          "type": "string"
        }
      ],
      "name": "mint",
      "outputs": [
        {
          "internalType": "uint256",
          "name": "",
          "type": "uint256"
        }
      ],
      "stateMutability": "nonpayable",
      "type": "function"
    },
    {
      "inputs": [],
      "name": "name",
      "outputs": [
        {
          "internalType": "string",
          "name": "",
          "type": "string"
        }
      ],
      "stateMutability": "view",
      "type": "function"
    },
    {
      "inputs": [
        {
          "internalType": "uint256",
          "name": "tokenId",
          "type": "uint256"
        }
      ],
      "name": "ownerOf",
      "outputs": [
        {
          "internalType": "address",
          "name": "",
          "type": "address"
        }
      ],
      "stateMutability": "view",
      "type": "function"
    },
    {
      "inputs": [],
      "name": "participantFee",
      "outputs": [
        {
          "internalType": "uint256",
          "name": "",
          "type": "uint256"
        }
      ],
      "stateMutability": "view",
      "type": "function"
    },
    {
      "inputs": [],
      "name": "postCount",
      "outputs": [
        {
          "internalType": "uint256",
          "name": "",
          "type": "uint256"
        }
      ],
      "stateMutability": "view",
      "type": "function"
    },
    {
      "inputs": [
        {
          "internalType": "uint256",
          "name": "",
          "type": "uint256"
        }
      ],
      "name": "posts",
      "outputs": [
        {
          "internalType": "uint256",
          "name": "id",
          "type": "uint256"
        },
        {
          "internalType": "string",
          "name": "hash",
          "type": "string"
        },
        {
          "internalType": "uint256",
          "name": "tipAmount",
          "type": "uint256"
        },
        {
          "internalType": "address payable",
          "name": "author",
          "type": "address"
        }
      ],
      "stateMutability": "view",
      "type": "function"
    },
    {
      "inputs": [
        {
          "internalType": "address",
          "name": "",
          "type": "address"
        }
      ],
      "name": "profiles",
      "outputs": [
        {
          "internalType": "uint256",
          "name": "",
          "type": "uint256"
        }
      ],
      "stateMutability": "view",
      "type": "function"
    },
    {
      "inputs": [
        {
          "internalType": "address",
          "name": "from",
          "type": "address"
        },
        {
          "internalType": "address",
          "name": "to",
          "type": "address"
        },
        {
          "internalType": "uint256",
          "name": "tokenId",
          "type": "uint256"
        }
      ],
      "name": "safeTransferFrom",
      "outputs": [],
      "stateMutability": "nonpayable",
      "type": "function"
    },
    {
      "inputs": [
        {
          "internalType": "address",
          "name": "from",
          "type": "address"
        },
        {
          "internalType": "address",
          "name": "to",
          "type": "address"
        },
        {
          "internalType": "uint256",
          "name": "tokenId",
          "type": "uint256"
        },
        {
          "internalType": "bytes",
          "name": "data",
          "type": "bytes"
        }
      ],
      "name": "safeTransferFrom",
      "outputs": [],
      "stateMutability": "nonpayable",
      "type": "function"
    },
    {
      "inputs": [
        {
          "internalType": "address",
          "name": "operator",
          "type": "address"
        },
        {
          "internalType": "bool",
          "name": "approved",
          "type": "bool"
        }
      ],
      "name": "setApprovalForAll",
      "outputs": [],
      "stateMutability": "nonpayable",
      "type": "function"
    },
    {
      "inputs": [
        {
          "internalType": "uint256",
          "name": "_id",
          "type": "uint256"
        }
      ],
      "name": "setProfile",
      "outputs": [],
      "stateMutability": "nonpayable",
      "type": "function"
    },
    {
      "inputs": [
        {
          "internalType": "bytes4",
          "name": "interfaceId",
          "type": "bytes4"
        }
      ],
      "name": "supportsInterface",
      "outputs": [
        {
          "internalType": "bool",
          "name": "",
          "type": "bool"
        }
      ],
      "stateMutability": "view",
      "type": "function"
    },
    {
      "inputs": [],
      "name": "symbol",
      "outputs": [
        {
          "internalType": "string",
          "name": "",
          "type": "string"
        }
      ],
      "stateMutability": "view",
      "type": "function"
    },
    {
      "inputs": [
        {
          "internalType": "uint256",
          "name": "_id",
          "type": "uint256"
        }
      ],
      "name": "tipPostOwner",
      "outputs": [],
      "stateMutability": "payable",
      "type": "function"
    },
    {
      "inputs": [],
      "name": "tokenCount",
      "outputs": [
        {
          "internalType": "uint256",
          "name": "",
          "type": "uint256"
        }
      ],
      "stateMutability": "view",
      "type": "function"
    },
    {
      "inputs": [
        {
          "internalType": "uint256",
          "name": "tokenId",
          "type": "uint256"
        }
      ],
      "name": "tokenURI",
      "outputs": [
        {
          "internalType": "string",
          "name": "",
          "type": "string"
        }
      ],
      "stateMutability": "view",
      "type": "function"
    },
    {
      "inputs": [
        {
          "internalType": "address",
          "name": "from",
          "type": "address"
        },
        {
          "internalType": "address",
          "name": "to",
          "type": "address"
        },
        {
          "internalType": "uint256",
          "name": "tokenId",
          "type": "uint256"
        }
      ],
      "name": "transferFrom",
      "outputs": [],
      "stateMutability": "nonpayable",
      "type": "function"
    },
    {
      "inputs": [
        {
          "internalType": "uint256",
          "name": "_eventId",
          "type": "uint256"
        },
        {
          "internalType": "string",
          "name": "_image",
          "type": "string"
        },
        {
          "internalType": "string",
          "name": "_caption",
          "type": "string"
        }
      ],
      "name": "uploadImage",
      "outputs": [],
      "stateMutability": "nonpayable",
      "type": "function"
    },
    {
      "inputs": [
        {
          "internalType": "string",
          "name": "_postHash",
          "type": "string"
        }
      ],
      "name": "uploadPost",
      "outputs": [],
      "stateMutability": "nonpayable",
      "type": "function"
    }
  ],
  "bytecode": "0x6080604052674563918244f40000600a553480156200001d57600080fd5b506040518060400160405280600f81526020017f446563656e7472617477697474657200000000000000000000000000000000008152506040518060400160405280600481526020017f44415050000000000000000000000000000000000000000000000000000000008152508160009080519060200190620000a2929190620000c4565b508060019080519060200190620000bb929190620000c4565b505050620001d9565b828054620000d29062000174565b90600052602060002090601f016020900481019282620000f6576000855562000142565b82601f106200011157805160ff191683800117855562000142565b8280016001018555821562000142579182015b828111156200014157825182559160200191906001019062000124565b5b50905062000151919062000155565b5090565b5b808211156200017057600081600090555060010162000156565b5090565b600060028204905060018216806200018d57607f821691505b60208210811415620001a457620001a3620001aa565b5b50919050565b7f4e487b7100000000000000000000000000000000000000000000000000000000600052602260045260246000fd5b614b1580620001e96000396000f3fe6080604052600436106101cd5760003560e01c80636352211e116100f7578063a22cb46511610095578063c87b56dd11610064578063c87b56dd146106a5578063d6313c06146106e2578063d85d3d27146106fe578063e985e9c51461073b576101cd565b8063a22cb465146105ed578063b88d4fde14610616578063bbe156271461063f578063bdd05adb1461067c576101cd565b806385d3cb37116100d157806385d3cb371461054357806395d89b411461056c5780639c031ace146105975780639f181b5e146105c2576101cd565b80636352211e1461049e57806370a08231146104db57806371be2e4a14610518576101cd565b806317906c2e1161016f57806338d361e21161013e57806338d361e214610407578063403ae26f1461042357806342842e0e1461044c5780635555fe1714610475576101cd565b806317906c2e1461034b57806323b872dd14610376578063305611001461039f5780633242b1f1146103ca576101cd565b8063081812fc116101ab578063081812fc14610265578063095ea7b3146102a25780630b1e7f83146102cb5780630b7914301461030b576101cd565b806301ffc9a7146101d2578063047b07bf1461020f57806306fdde031461023a575b600080fd5b3480156101de57600080fd5b506101f960048036038101906101f4919061341e565b610778565b6040516102069190613ce9565b60405180910390f35b34801561021b57600080fd5b506102246107d9565b6040516102319190613cc7565b60405180910390f35b34801561024657600080fd5b5061024f61091a565b60405161025c9190613d04565b60405180910390f35b34801561027157600080fd5b5061028c60048036038101906102879190613530565b6109ac565b6040516102999190613c3e565b60405180910390f35b3480156102ae57600080fd5b506102c960048036038101906102c491906133e2565b6109f2565b005b3480156102d757600080fd5b506102f260048036038101906102ed9190613530565b610b0a565b6040516103029493929190614110565b60405180910390f35b34801561031757600080fd5b50610332600480360381019061032d9190613530565b610be2565b60405161034294939291906140bd565b60405180910390f35b34801561035757600080fd5b50610360610d22565b60405161036d91906140a2565b60405180910390f35b34801561038257600080fd5b5061039d600480360381019061039891906132dc565b610d28565b005b3480156103ab57600080fd5b506103b4610d88565b6040516103c19190613ca5565b60405180910390f35b3480156103d657600080fd5b506103f160048036038101906103ec9190613559565b610f9c565b6040516103fe9190613ce9565b60405180910390f35b610421600480360381019061041c9190613530565b610fcb565b005b34801561042f57600080fd5b5061044a60048036038101906104459190613595565b611227565b005b34801561045857600080fd5b50610473600480360381019061046e91906132dc565b6113de565b005b34801561048157600080fd5b5061049c600480360381019061049791906134b1565b6113fe565b005b3480156104aa57600080fd5b506104c560048036038101906104c09190613530565b6114b9565b6040516104d29190613c3e565b60405180910390f35b3480156104e757600080fd5b5061050260048036038101906104fd9190613277565b611540565b60405161050f91906140a2565b60405180910390f35b34801561052457600080fd5b5061052d6115f8565b60405161053a91906140a2565b60405180910390f35b34801561054f57600080fd5b5061056a60048036038101906105659190613530565b6115fe565b005b34801561057857600080fd5b506105816116ff565b60405161058e9190613d04565b60405180910390f35b3480156105a357600080fd5b506105ac611791565b6040516105b991906140a2565b60405180910390f35b3480156105ce57600080fd5b506105d7611797565b6040516105e491906140a2565b60405180910390f35b3480156105f957600080fd5b50610614600480360381019061060f91906133a6565b61179d565b005b34801561062257600080fd5b5061063d6004803603810190610638919061332b565b6117b3565b005b34801561064b57600080fd5b5061066660048036038101906106619190613277565b611815565b60405161067391906140a2565b60405180910390f35b34801561068857600080fd5b506106a3600480360381019061069e9190613470565b61182d565b005b3480156106b157600080fd5b506106cc60048036038101906106c79190613530565b6119f5565b6040516106d99190613d04565b60405180910390f35b6106fc60048036038101906106f79190613530565b611b08565b005b34801561070a57600080fd5b5061072560048036038101906107209190613470565b611d09565b60405161073291906140a2565b60405180910390f35b34801561074757600080fd5b50610762600480360381019061075d91906132a0565b611d96565b60405161076f9190613ce9565b60405180910390f35b6000634906490660e01b7bffffffffffffffffffffffffffffffffffffffffffffffffffffffff1916827bffffffffffffffffffffffffffffffffffffffffffffffffffffffff191614806107d257506107d182611e2a565b5b9050919050565b606060006107e633611540565b905060008167ffffffffffffffff81111561082a577f4e487b7100000000000000000000000000000000000000000000000000000000600052604160045260246000fd5b6040519080825280602002602001820160405280156108585781602001602082028036833780820191505090505b509050600080600190505b6007548111610910573373ffffffffffffffffffffffffffffffffffffffff1661088c826114b9565b73ffffffffffffffffffffffffffffffffffffffff1614156108fd57808383815181106108e2577f4e487b7100000000000000000000000000000000000000000000000000000000600052603260045260246000fd5b60200260200101818152505081806108f990614451565b9250505b808061090890614451565b915050610863565b5081935050505090565b606060008054610929906143ee565b80601f0160208091040260200160405190810160405280929190818152602001828054610955906143ee565b80156109a25780601f10610977576101008083540402835291602001916109a2565b820191906000526020600020905b81548152906001019060200180831161098557829003601f168201915b5050505050905090565b60006109b782611f0c565b6004600083815260200190815260200160002060009054906101000a900473ffffffffffffffffffffffffffffffffffffffff169050919050565b60006109fd826114b9565b90508073ffffffffffffffffffffffffffffffffffffffff168373ffffffffffffffffffffffffffffffffffffffff161415610a6e576040517f08c379a0000000000000000000000000000000000000000000000000000000008152600401610a6590614002565b60405180910390fd5b8073ffffffffffffffffffffffffffffffffffffffff16610a8d611f57565b73ffffffffffffffffffffffffffffffffffffffff161480610abc5750610abb81610ab6611f57565b611d96565b5b610afb576040517f08c379a0000000000000000000000000000000000000000000000000000000008152600401610af290614082565b60405180910390fd5b610b058383611f5f565b505050565b600b602052806000526040600020600091509050806000015490806001018054610b33906143ee565b80601f0160208091040260200160405190810160405280929190818152602001828054610b5f906143ee565b8015610bac5780601f10610b8157610100808354040283529160200191610bac565b820191906000526020600020905b815481529060010190602001808311610b8f57829003601f168201915b5050505050908060020154908060030160009054906101000a900473ffffffffffffffffffffffffffffffffffffffff16905084565b600c602052806000526040600020600091509050806000015490806001018054610c0b906143ee565b80601f0160208091040260200160405190810160405280929190818152602001828054610c37906143ee565b8015610c845780601f10610c5957610100808354040283529160200191610c84565b820191906000526020600020905b815481529060010190602001808311610c6757829003601f168201915b505050505090806002018054610c99906143ee565b80601f0160208091040260200160405190810160405280929190818152602001828054610cc5906143ee565b8015610d125780601f10610ce757610100808354040283529160200191610d12565b820191906000526020600020905b815481529060010190602001808311610cf557829003601f168201915b5050505050908060030154905084565b60085481565b610d39610d33611f57565b82612018565b610d78576040517f08c379a0000000000000000000000000000000000000000000000000000000008152600401610d6f90613e02565b60405180910390fd5b610d838383836120ad565b505050565b6060600060085467ffffffffffffffff811115610dce577f4e487b7100000000000000000000000000000000000000000000000000000000600052604160045260246000fd5b604051908082528060200260200182016040528015610e0757816020015b610df461305d565b815260200190600190039081610dec5790505b50905060005b600854811015610f9457600b6000600183610e2891906142be565b815260200190815260200160002060405180608001604052908160008201548152602001600182018054610e5b906143ee565b80601f0160208091040260200160405190810160405280929190818152602001828054610e87906143ee565b8015610ed45780601f10610ea957610100808354040283529160200191610ed4565b820191906000526020600020905b815481529060010190602001808311610eb757829003601f168201915b50505050508152602001600282015481526020016003820160009054906101000a900473ffffffffffffffffffffffffffffffffffffffff1673ffffffffffffffffffffffffffffffffffffffff1673ffffffffffffffffffffffffffffffffffffffff1681525050828281518110610f76577f4e487b7100000000000000000000000000000000000000000000000000000000600052603260045260246000fd5b60200260200101819052508080610f8c90614451565b915050610e0d565b508091505090565b600e6020528160005260406000206020528060005260406000206000915091509054906101000a900460ff1681565b600a54341461100f576040517f08c379a000000000000000000000000000000000000000000000000000000000815260040161100690614042565b60405180910390fd5b6000600c600083815260200190815260200160002090508060030154816004018054905010611073576040517f08c379a000000000000000000000000000000000000000000000000000000000815260040161106a90614022565b60405180910390fd5b600e600083815260200190815260200160002060003373ffffffffffffffffffffffffffffffffffffffff1673ffffffffffffffffffffffffffffffffffffffff16815260200190815260200160002060009054906101000a900460ff1615611111576040517f08c379a000000000000000000000000000000000000000000000000000000000815260040161110890613e82565b60405180910390fd5b80600401339080600181540180825580915050600190039060005260206000200160009091909190916101000a81548173ffffffffffffffffffffffffffffffffffffffff021916908373ffffffffffffffffffffffffffffffffffffffff1602179055506001600e600084815260200190815260200160002060003373ffffffffffffffffffffffffffffffffffffffff1673ffffffffffffffffffffffffffffffffffffffff16815260200190815260200160002060006101000a81548160ff0219169083151502179055503373ffffffffffffffffffffffffffffffffffffffff16827ff11149736e591e4b965f3e9e625eaf62f393d637814b49899d9e8e0374cd0f9e60405160405180910390a35050565b600e600084815260200190815260200160002060003373ffffffffffffffffffffffffffffffffffffffff1673ffffffffffffffffffffffffffffffffffffffff16815260200190815260200160002060009054906101000a900460ff166112c4576040517f08c379a00000000000000000000000000000000000000000000000000000000081526004016112bb90613ea2565b60405180910390fd5b6000600c60008581526020019081526020016000209050828160060160003373ffffffffffffffffffffffffffffffffffffffff1673ffffffffffffffffffffffffffffffffffffffff168152602001908152602001600020908051906020019061133092919061309b565b50818160050160003373ffffffffffffffffffffffffffffffffffffffff1673ffffffffffffffffffffffffffffffffffffffff168152602001908152602001600020908051906020019061138692919061309b565b503373ffffffffffffffffffffffffffffffffffffffff16847f8bdd4e673c649a31e49968c7770bb72a7fcd31252322145f9b734f8b6bbdd65685856040516113d0929190613d56565b60405180910390a350505050565b6113f9838383604051806020016040528060008152506117b3565b505050565b6009600081548092919061141190614451565b91905055506000600c60006009548152602001908152602001600020905060095481600001819055508381600101908051906020019061145292919061309b565b508281600201908051906020019061146b92919061309b565b508181600301819055506009547fc3c73c6e241661d903c3cd6d17266ff5d3b495e57afa5898c2c429e4b7d474708585856040516114ab93929190613d8d565b60405180910390a250505050565b6000806114c5836121d0565b9050600073ffffffffffffffffffffffffffffffffffffffff168173ffffffffffffffffffffffffffffffffffffffff161415611537576040517f08c379a000000000000000000000000000000000000000000000000000000000815260040161152e90613fe2565b60405180910390fd5b80915050919050565b60008073ffffffffffffffffffffffffffffffffffffffff168273ffffffffffffffffffffffffffffffffffffffff1614156115b1576040517f08c379a00000000000000000000000000000000000000000000000000000000081526004016115a890613f02565b60405180910390fd5b600360008373ffffffffffffffffffffffffffffffffffffffff1673ffffffffffffffffffffffffffffffffffffffff168152602001908152602001600020549050919050565b60095481565b3373ffffffffffffffffffffffffffffffffffffffff1661161e826114b9565b73ffffffffffffffffffffffffffffffffffffffff1614611674576040517f08c379a000000000000000000000000000000000000000000000000000000000815260040161166b90613f62565b60405180910390fd5b80600d60003373ffffffffffffffffffffffffffffffffffffffff1673ffffffffffffffffffffffffffffffffffffffff16815260200190815260200160002081905550803373ffffffffffffffffffffffffffffffffffffffff167f72d2dd9149d4be2a1bf336c3f16956682542d7af0035b1a341c5581e92903fbf60405160405180910390a350565b60606001805461170e906143ee565b80601f016020809104026020016040519081016040528092919081815260200182805461173a906143ee565b80156117875780601f1061175c57610100808354040283529160200191611787565b820191906000526020600020905b81548152906001019060200180831161176a57829003601f168201915b5050505050905090565b600a5481565b60075481565b6117af6117a8611f57565b838361220d565b5050565b6117c46117be611f57565b83612018565b611803576040517f08c379a00000000000000000000000000000000000000000000000000000000081526004016117fa90613e02565b60405180910390fd5b61180f8484848461237a565b50505050565b600d6020528060005260406000206000915090505481565b600061183833611540565b11611878576040517f08c379a000000000000000000000000000000000000000000000000000000000815260040161186f90613fa2565b60405180910390fd5b60008151116118bc576040517f08c379a00000000000000000000000000000000000000000000000000000000081526004016118b390613fc2565b60405180910390fd5b600860008154809291906118cf90614451565b919050555060405180608001604052806008548152602001828152602001600081526020013373ffffffffffffffffffffffffffffffffffffffff16815250600b6000600854815260200190815260200160002060008201518160000155602082015181600101908051906020019061194992919061309b565b506040820151816002015560608201518160030160006101000a81548173ffffffffffffffffffffffffffffffffffffffff021916908373ffffffffffffffffffffffffffffffffffffffff1602179055509050503373ffffffffffffffffffffffffffffffffffffffff166008547fc66336337a24e513f909b3b25119854dba8385d51307dbc7d31d1b2805e19c7e8360006040516119ea929190613d26565b60405180910390a350565b6060611a0082611f0c565b6000600660008481526020019081526020016000208054611a20906143ee565b80601f0160208091040260200160405190810160405280929190818152602001828054611a4c906143ee565b8015611a995780601f10611a6e57610100808354040283529160200191611a99565b820191906000526020600020905b815481529060010190602001808311611a7c57829003601f168201915b505050505090506000611aaa6123d6565b9050600081511415611ac0578192505050611b03565b600082511115611af5578082604051602001611add929190613c1a565b60405160208183030381529060405292505050611b03565b611afe846123ed565b925050505b919050565b600081118015611b1a57506008548111155b611b59576040517f08c379a0000000000000000000000000000000000000000000000000000000008152600401611b5090613f42565b60405180910390fd5b6000600b600083815260200190815260200160002090503373ffffffffffffffffffffffffffffffffffffffff168160030160009054906101000a900473ffffffffffffffffffffffffffffffffffffffff1673ffffffffffffffffffffffffffffffffffffffff161415611c03576040517f08c379a0000000000000000000000000000000000000000000000000000000008152600401611bfa90614062565b60405180910390fd5b8060030160009054906101000a900473ffffffffffffffffffffffffffffffffffffffff1673ffffffffffffffffffffffffffffffffffffffff166108fc349081150290604051600060405180830381858888f19350505050158015611c6d573d6000803e3d6000fd5b5034816002016000828254611c8291906142be565b925050819055508060030160009054906101000a900473ffffffffffffffffffffffffffffffffffffffff1673ffffffffffffffffffffffffffffffffffffffff16827f20988fe475351e75813672abada1dddb7ac67cbbeb81e61e1160b8329d8cdf1c836001018460020154604051611cfd929190613dd2565b60405180910390a35050565b600060076000815480929190611d1e90614451565b9190505550611d2f33600754612455565b611d3b60075483612473565b611d466007546115fe565b6007543373ffffffffffffffffffffffffffffffffffffffff167f72d2dd9149d4be2a1bf336c3f16956682542d7af0035b1a341c5581e92903fbf60405160405180910390a36007549050919050565b6000600560008473ffffffffffffffffffffffffffffffffffffffff1673ffffffffffffffffffffffffffffffffffffffff16815260200190815260200160002060008373ffffffffffffffffffffffffffffffffffffffff1673ffffffffffffffffffffffffffffffffffffffff16815260200190815260200160002060009054906101000a900460ff16905092915050565b60007f80ac58cd000000000000000000000000000000000000000000000000000000007bffffffffffffffffffffffffffffffffffffffffffffffffffffffff1916827bffffffffffffffffffffffffffffffffffffffffffffffffffffffff19161480611ef557507f5b5e139f000000000000000000000000000000000000000000000000000000007bffffffffffffffffffffffffffffffffffffffffffffffffffffffff1916827bffffffffffffffffffffffffffffffffffffffffffffffffffffffff1916145b80611f055750611f048261251e565b5b9050919050565b611f1581612588565b611f54576040517f08c379a0000000000000000000000000000000000000000000000000000000008152600401611f4b90613fe2565b60405180910390fd5b50565b600033905090565b816004600083815260200190815260200160002060006101000a81548173ffffffffffffffffffffffffffffffffffffffff021916908373ffffffffffffffffffffffffffffffffffffffff160217905550808273ffffffffffffffffffffffffffffffffffffffff16611fd2836114b9565b73ffffffffffffffffffffffffffffffffffffffff167f8c5be1e5ebec7d5bd14f71427d1e84f3dd0314c0f7b2291e5b200ac8c7c3b92560405160405180910390a45050565b600080612024836114b9565b90508073ffffffffffffffffffffffffffffffffffffffff168473ffffffffffffffffffffffffffffffffffffffff16148061206657506120658185611d96565b5b806120a457508373ffffffffffffffffffffffffffffffffffffffff1661208c846109ac565b73ffffffffffffffffffffffffffffffffffffffff16145b91505092915050565b6120b88383836125c9565b80600d60008573ffffffffffffffffffffffffffffffffffffffff1673ffffffffffffffffffffffffffffffffffffffff1681526020019081526020016000205414156121cb57600d60008473ffffffffffffffffffffffffffffffffffffffff1673ffffffffffffffffffffffffffffffffffffffff1681526020019081526020016000206000905580600d60008473ffffffffffffffffffffffffffffffffffffffff1673ffffffffffffffffffffffffffffffffffffffff16815260200190815260200160002081905550808273ffffffffffffffffffffffffffffffffffffffff167f72d2dd9149d4be2a1bf336c3f16956682542d7af0035b1a341c5581e92903fbf60405160405180910390a35b505050565b60006002600083815260200190815260200160002060009054906101000a900473ffffffffffffffffffffffffffffffffffffffff169050919050565b8173ffffffffffffffffffffffffffffffffffffffff168373ffffffffffffffffffffffffffffffffffffffff16141561227c576040517f08c379a000000000000000000000000000000000000000000000000000000000815260040161227390613ee2565b60405180910390fd5b80600560008573ffffffffffffffffffffffffffffffffffffffff1673ffffffffffffffffffffffffffffffffffffffff16815260200190815260200160002060008473ffffffffffffffffffffffffffffffffffffffff1673ffffffffffffffffffffffffffffffffffffffff16815260200190815260200160002060006101000a81548160ff0219169083151502179055508173ffffffffffffffffffffffffffffffffffffffff168373ffffffffffffffffffffffffffffffffffffffff167f17307eab39ab6107e8899845ad3d59bd9653f200f220920489ca2b5937696c318360405161236d9190613ce9565b60405180910390a3505050565b6123858484846120ad565b612391848484846128c3565b6123d0576040517f08c379a00000000000000000000000000000000000000000000000000000000081526004016123c790613e22565b60405180910390fd5b50505050565b606060405180602001604052806000815250905090565b60606123f882611f0c565b60006124026123d6565b90506000815111612422576040518060200160405280600081525061244d565b8061242c84612a5a565b60405160200161243d929190613c1a565b6040516020818303038152906040525b915050919050565b61246f828260405180602001604052806000815250612b7e565b5050565b61247c82612588565b6124bb576040517f08c379a00000000000000000000000000000000000000000000000000000000081526004016124b290613f22565b60405180910390fd5b806006600084815260200190815260200160002090805190602001906124e292919061309b565b507ff8e1a15aba9398e019f0b49df1a4fde98ee17ae345cb5f6b5e2c27f5033e8ce78260405161251291906140a2565b60405180910390a15050565b60007f01ffc9a7000000000000000000000000000000000000000000000000000000007bffffffffffffffffffffffffffffffffffffffffffffffffffffffff1916827bffffffffffffffffffffffffffffffffffffffffffffffffffffffff1916149050919050565b60008073ffffffffffffffffffffffffffffffffffffffff166125aa836121d0565b73ffffffffffffffffffffffffffffffffffffffff1614159050919050565b8273ffffffffffffffffffffffffffffffffffffffff166125e9826114b9565b73ffffffffffffffffffffffffffffffffffffffff161461263f576040517f08c379a000000000000000000000000000000000000000000000000000000000815260040161263690613e42565b60405180910390fd5b600073ffffffffffffffffffffffffffffffffffffffff168273ffffffffffffffffffffffffffffffffffffffff1614156126af576040517f08c379a00000000000000000000000000000000000000000000000000000000081526004016126a690613ec2565b60405180910390fd5b6126bc8383836001612bd9565b8273ffffffffffffffffffffffffffffffffffffffff166126dc826114b9565b73ffffffffffffffffffffffffffffffffffffffff1614612732576040517f08c379a000000000000000000000000000000000000000000000000000000000815260040161272990613e42565b60405180910390fd5b6004600082815260200190815260200160002060006101000a81549073ffffffffffffffffffffffffffffffffffffffff02191690556001600360008573ffffffffffffffffffffffffffffffffffffffff1673ffffffffffffffffffffffffffffffffffffffff168152602001908152602001600020600082825403925050819055506001600360008473ffffffffffffffffffffffffffffffffffffffff1673ffffffffffffffffffffffffffffffffffffffff16815260200190815260200160002060008282540192505081905550816002600083815260200190815260200160002060006101000a81548173ffffffffffffffffffffffffffffffffffffffff021916908373ffffffffffffffffffffffffffffffffffffffff160217905550808273ffffffffffffffffffffffffffffffffffffffff168473ffffffffffffffffffffffffffffffffffffffff167fddf252ad1be2c89b69c2b068fc378daa952ba7f163c4a11628f55a4df523b3ef60405160405180910390a46128be8383836001612bdf565b505050565b60006128e48473ffffffffffffffffffffffffffffffffffffffff16612be5565b15612a4d578373ffffffffffffffffffffffffffffffffffffffff1663150b7a0261290d611f57565b8786866040518563ffffffff1660e01b815260040161292f9493929190613c59565b602060405180830381600087803b15801561294957600080fd5b505af192505050801561297a57506040513d601f19601f820116820180604052508101906129779190613447565b60015b6129fd573d80600081146129aa576040519150601f19603f3d011682016040523d82523d6000602084013e6129af565b606091505b506000815114156129f5576040517f08c379a00000000000000000000000000000000000000000000000000000000081526004016129ec90613e22565b60405180910390fd5b805181602001fd5b63150b7a0260e01b7bffffffffffffffffffffffffffffffffffffffffffffffffffffffff1916817bffffffffffffffffffffffffffffffffffffffffffffffffffffffff191614915050612a52565b600190505b949350505050565b606060006001612a6984612c08565b01905060008167ffffffffffffffff811115612aae577f4e487b7100000000000000000000000000000000000000000000000000000000600052604160045260246000fd5b6040519080825280601f01601f191660200182016040528015612ae05781602001600182028036833780820191505090505b509050600082602001820190505b600115612b73578080600190039150507f3031323334353637383961626364656600000000000000000000000000000000600a86061a8153600a8581612b5d577f4e487b7100000000000000000000000000000000000000000000000000000000600052601260045260246000fd5b0494506000851415612b6e57612b73565b612aee565b819350505050919050565b612b888383612e3f565b612b9560008484846128c3565b612bd4576040517f08c379a0000000000000000000000000000000000000000000000000000000008152600401612bcb90613e22565b60405180910390fd5b505050565b50505050565b50505050565b6000808273ffffffffffffffffffffffffffffffffffffffff163b119050919050565b600080600090507a184f03e93ff9f4daa797ed6e38ed64bf6a1f0100000000000000008310612c8c577a184f03e93ff9f4daa797ed6e38ed64bf6a1f0100000000000000008381612c82577f4e487b7100000000000000000000000000000000000000000000000000000000600052601260045260246000fd5b0492506040810190505b6d04ee2d6d415b85acef81000000008310612cef576d04ee2d6d415b85acef81000000008381612ce5577f4e487b7100000000000000000000000000000000000000000000000000000000600052601260045260246000fd5b0492506020810190505b662386f26fc100008310612d4457662386f26fc100008381612d3a577f4e487b7100000000000000000000000000000000000000000000000000000000600052601260045260246000fd5b0492506010810190505b6305f5e1008310612d93576305f5e1008381612d89577f4e487b7100000000000000000000000000000000000000000000000000000000600052601260045260246000fd5b0492506008810190505b6127108310612dde576127108381612dd4577f4e487b7100000000000000000000000000000000000000000000000000000000600052601260045260246000fd5b0492506004810190505b60648310612e275760648381612e1d577f4e487b7100000000000000000000000000000000000000000000000000000000600052601260045260246000fd5b0492506002810190505b600a8310612e36576001810190505b80915050919050565b600073ffffffffffffffffffffffffffffffffffffffff168273ffffffffffffffffffffffffffffffffffffffff161415612eaf576040517f08c379a0000000000000000000000000000000000000000000000000000000008152600401612ea690613f82565b60405180910390fd5b612eb881612588565b15612ef8576040517f08c379a0000000000000000000000000000000000000000000000000000000008152600401612eef90613e62565b60405180910390fd5b612f06600083836001612bd9565b612f0f81612588565b15612f4f576040517f08c379a0000000000000000000000000000000000000000000000000000000008152600401612f4690613e62565b60405180910390fd5b6001600360008473ffffffffffffffffffffffffffffffffffffffff1673ffffffffffffffffffffffffffffffffffffffff16815260200190815260200160002060008282540192505081905550816002600083815260200190815260200160002060006101000a81548173ffffffffffffffffffffffffffffffffffffffff021916908373ffffffffffffffffffffffffffffffffffffffff160217905550808273ffffffffffffffffffffffffffffffffffffffff16600073ffffffffffffffffffffffffffffffffffffffff167fddf252ad1be2c89b69c2b068fc378daa952ba7f163c4a11628f55a4df523b3ef60405160405180910390a4613059600083836001612bdf565b5050565b6040518060800160405280600081526020016060815260200160008152602001600073ffffffffffffffffffffffffffffffffffffffff1681525090565b8280546130a7906143ee565b90600052602060002090601f0160209004810192826130c95760008555613110565b82601f106130e257805160ff1916838001178555613110565b82800160010185558215613110579182015b8281111561310f5782518255916020019190600101906130f4565b5b50905061311d9190613121565b5090565b5b8082111561313a576000816000905550600101613122565b5090565b600061315161314c84614181565b61415c565b90508281526020810184848401111561316957600080fd5b6131748482856143ac565b509392505050565b600061318f61318a846141b2565b61415c565b9050828152602081018484840111156131a757600080fd5b6131b28482856143ac565b509392505050565b6000813590506131c981614a83565b92915050565b6000813590506131de81614a9a565b92915050565b6000813590506131f381614ab1565b92915050565b60008151905061320881614ab1565b92915050565b600082601f83011261321f57600080fd5b813561322f84826020860161313e565b91505092915050565b600082601f83011261324957600080fd5b813561325984826020860161317c565b91505092915050565b60008135905061327181614ac8565b92915050565b60006020828403121561328957600080fd5b6000613297848285016131ba565b91505092915050565b600080604083850312156132b357600080fd5b60006132c1858286016131ba565b92505060206132d2858286016131ba565b9150509250929050565b6000806000606084860312156132f157600080fd5b60006132ff868287016131ba565b9350506020613310868287016131ba565b925050604061332186828701613262565b9150509250925092565b6000806000806080858703121561334157600080fd5b600061334f878288016131ba565b9450506020613360878288016131ba565b935050604061337187828801613262565b925050606085013567ffffffffffffffff81111561338e57600080fd5b61339a8782880161320e565b91505092959194509250565b600080604083850312156133b957600080fd5b60006133c7858286016131ba565b92505060206133d8858286016131cf565b9150509250929050565b600080604083850312156133f557600080fd5b6000613403858286016131ba565b925050602061341485828601613262565b9150509250929050565b60006020828403121561343057600080fd5b600061343e848285016131e4565b91505092915050565b60006020828403121561345957600080fd5b6000613467848285016131f9565b91505092915050565b60006020828403121561348257600080fd5b600082013567ffffffffffffffff81111561349c57600080fd5b6134a884828501613238565b91505092915050565b6000806000606084860312156134c657600080fd5b600084013567ffffffffffffffff8111156134e057600080fd5b6134ec86828701613238565b935050602084013567ffffffffffffffff81111561350957600080fd5b61351586828701613238565b925050604061352686828701613262565b9150509250925092565b60006020828403121561354257600080fd5b600061355084828501613262565b91505092915050565b6000806040838503121561356c57600080fd5b600061357a85828601613262565b925050602061358b858286016131ba565b9150509250929050565b6000806000606084860312156135aa57600080fd5b60006135b886828701613262565b935050602084013567ffffffffffffffff8111156135d557600080fd5b6135e186828701613238565b925050604084013567ffffffffffffffff8111156135fe57600080fd5b61360a86828701613238565b9150509250925092565b60006136208383613b99565b905092915050565b60006136348383613bfc565b60208301905092915050565b61364981614326565b82525050565b61365881614326565b82525050565b61366781614314565b82525050565b600061367882614218565b613682818561425e565b935083602082028501613694856141e3565b8060005b858110156136d057848403895281516136b18582613614565b94506136bc83614244565b925060208a01995050600181019050613698565b50829750879550505050505092915050565b60006136ed82614223565b6136f7818561426f565b9350613702836141f3565b8060005b8381101561373357815161371a8882613628565b975061372583614251565b925050600181019050613706565b5085935050505092915050565b61374981614338565b82525050565b600061375a8261422e565b6137648185614280565b93506137748185602086016143bb565b61377d81614527565b840191505092915050565b6137918161439a565b82525050565b60006137a282614239565b6137ac8185614291565b93506137bc8185602086016143bb565b6137c581614527565b840191505092915050565b60006137db82614239565b6137e581856142a2565b93506137f58185602086016143bb565b6137fe81614527565b840191505092915050565b600061381482614239565b61381e81856142b3565b935061382e8185602086016143bb565b80840191505092915050565b60008154613847816143ee565b61385181866142a2565b9450600182166000811461386c576001811461387e576138b1565b60ff19831686526020860193506138b1565b61388785614203565b60005b838110156138a95781548189015260018201915060208101905061388a565b808801955050505b50505092915050565b60006138c7602d836142a2565b91506138d282614538565b604082019050919050565b60006138ea6032836142a2565b91506138f582614587565b604082019050919050565b600061390d6025836142a2565b9150613918826145d6565b604082019050919050565b6000613930601c836142a2565b915061393b82614625565b602082019050919050565b60006139536022836142a2565b915061395e8261464e565b604082019050919050565b60006139766027836142a2565b91506139818261469d565b604082019050919050565b60006139996024836142a2565b91506139a4826146ec565b604082019050919050565b60006139bc6019836142a2565b91506139c78261473b565b602082019050919050565b60006139df6029836142a2565b91506139ea82614764565b604082019050919050565b6000613a02602e836142a2565b9150613a0d826147b3565b604082019050919050565b6000613a25600f836142a2565b9150613a3082614802565b602082019050919050565b6000613a486030836142a2565b9150613a538261482b565b604082019050919050565b6000613a6b6020836142a2565b9150613a768261487a565b602082019050919050565b6000613a8e6026836142a2565b9150613a99826148a3565b604082019050919050565b6000613ab16019836142a2565b9150613abc826148f2565b602082019050919050565b6000613ad46018836142a2565b9150613adf8261491b565b602082019050919050565b6000613af76021836142a2565b9150613b0282614944565b604082019050919050565b6000613b1a600d836142a2565b9150613b2582614993565b602082019050919050565b6000613b3d6022836142a2565b9150613b48826149bc565b604082019050919050565b6000613b606018836142a2565b9150613b6b82614a0b565b602082019050919050565b6000613b83603d836142a2565b9150613b8e82614a34565b604082019050919050565b6000608083016000830151613bb16000860182613bfc565b5060208301518482036020860152613bc98282613797565b9150506040830151613bde6040860182613bfc565b506060830151613bf16060860182613640565b508091505092915050565b613c0581614390565b82525050565b613c1481614390565b82525050565b6000613c268285613809565b9150613c328284613809565b91508190509392505050565b6000602082019050613c53600083018461365e565b92915050565b6000608082019050613c6e600083018761365e565b613c7b602083018661365e565b613c886040830185613c0b565b8181036060830152613c9a818461374f565b905095945050505050565b60006020820190508181036000830152613cbf818461366d565b905092915050565b60006020820190508181036000830152613ce181846136e2565b905092915050565b6000602082019050613cfe6000830184613740565b92915050565b60006020820190508181036000830152613d1e81846137d0565b905092915050565b60006040820190508181036000830152613d4081856137d0565b9050613d4f6020830184613788565b9392505050565b60006040820190508181036000830152613d7081856137d0565b90508181036020830152613d8481846137d0565b90509392505050565b60006060820190508181036000830152613da781866137d0565b90508181036020830152613dbb81856137d0565b9050613dca6040830184613c0b565b949350505050565b60006040820190508181036000830152613dec818561383a565b9050613dfb6020830184613c0b565b9392505050565b60006020820190508181036000830152613e1b816138ba565b9050919050565b60006020820190508181036000830152613e3b816138dd565b9050919050565b60006020820190508181036000830152613e5b81613900565b9050919050565b60006020820190508181036000830152613e7b81613923565b9050919050565b60006020820190508181036000830152613e9b81613946565b9050919050565b60006020820190508181036000830152613ebb81613969565b9050919050565b60006020820190508181036000830152613edb8161398c565b9050919050565b60006020820190508181036000830152613efb816139af565b9050919050565b60006020820190508181036000830152613f1b816139d2565b9050919050565b60006020820190508181036000830152613f3b816139f5565b9050919050565b60006020820190508181036000830152613f5b81613a18565b9050919050565b60006020820190508181036000830152613f7b81613a3b565b9050919050565b60006020820190508181036000830152613f9b81613a5e565b9050919050565b60006020820190508181036000830152613fbb81613a81565b9050919050565b60006020820190508181036000830152613fdb81613aa4565b9050919050565b60006020820190508181036000830152613ffb81613ac7565b9050919050565b6000602082019050818103600083015261401b81613aea565b9050919050565b6000602082019050818103600083015261403b81613b0d565b9050919050565b6000602082019050818103600083015261405b81613b30565b9050919050565b6000602082019050818103600083015261407b81613b53565b9050919050565b6000602082019050818103600083015261409b81613b76565b9050919050565b60006020820190506140b76000830184613c0b565b92915050565b60006080820190506140d26000830187613c0b565b81810360208301526140e481866137d0565b905081810360408301526140f881856137d0565b90506141076060830184613c0b565b95945050505050565b60006080820190506141256000830187613c0b565b818103602083015261413781866137d0565b90506141466040830185613c0b565b614153606083018461364f565b95945050505050565b6000614166614177565b90506141728282614420565b919050565b6000604051905090565b600067ffffffffffffffff82111561419c5761419b6144f8565b5b6141a582614527565b9050602081019050919050565b600067ffffffffffffffff8211156141cd576141cc6144f8565b5b6141d682614527565b9050602081019050919050565b6000819050602082019050919050565b6000819050602082019050919050565b60008190508160005260206000209050919050565b600081519050919050565b600081519050919050565b600081519050919050565b600081519050919050565b6000602082019050919050565b6000602082019050919050565b600082825260208201905092915050565b600082825260208201905092915050565b600082825260208201905092915050565b600082825260208201905092915050565b600082825260208201905092915050565b600081905092915050565b60006142c982614390565b91506142d483614390565b9250827fffffffffffffffffffffffffffffffffffffffffffffffffffffffffffffffff038211156143095761430861449a565b5b828201905092915050565b600061431f82614370565b9050919050565b600061433182614370565b9050919050565b60008115159050919050565b60007fffffffff0000000000000000000000000000000000000000000000000000000082169050919050565b600073ffffffffffffffffffffffffffffffffffffffff82169050919050565b6000819050919050565b60006143a582614390565b9050919050565b82818337600083830152505050565b60005b838110156143d95780820151818401526020810190506143be565b838111156143e8576000848401525b50505050565b6000600282049050600182168061440657607f821691505b6020821081141561441a576144196144c9565b5b50919050565b61442982614527565b810181811067ffffffffffffffff82111715614448576144476144f8565b5b80604052505050565b600061445c82614390565b91507fffffffffffffffffffffffffffffffffffffffffffffffffffffffffffffffff82141561448f5761448e61449a565b5b600182019050919050565b7f4e487b7100000000000000000000000000000000000000000000000000000000600052601160045260246000fd5b7f4e487b7100000000000000000000000000000000000000000000000000000000600052602260045260246000fd5b7f4e487b7100000000000000000000000000000000000000000000000000000000600052604160045260246000fd5b6000601f19601f8301169050919050565b7f4552433732313a2063616c6c6572206973206e6f7420746f6b656e206f776e6560008201527f72206f7220617070726f76656400000000000000000000000000000000000000602082015250565b7f4552433732313a207472616e7366657220746f206e6f6e20455243373231526560008201527f63656976657220696d706c656d656e7465720000000000000000000000000000602082015250565b7f4552433732313a207472616e736665722066726f6d20696e636f72726563742060008201527f6f776e6572000000000000000000000000000000000000000000000000000000602082015250565b7f4552433732313a20746f6b656e20616c7265616479206d696e74656400000000600082015250565b7f596f75206861766520616c7265616479206a6f696e656420746869732065766560008201527f6e74000000000000000000000000000000000000000000000000000000000000602082015250565b7f596f7520617265206e6f742061207061727469636970616e74206f662074686960008201527f73206576656e7400000000000000000000000000000000000000000000000000602082015250565b7f4552433732313a207472616e7366657220746f20746865207a65726f2061646460008201527f7265737300000000000000000000000000000000000000000000000000000000602082015250565b7f4552433732313a20617070726f766520746f2063616c6c657200000000000000600082015250565b7f4552433732313a2061646472657373207a65726f206973206e6f74206120766160008201527f6c6964206f776e65720000000000000000000000000000000000000000000000602082015250565b7f45524337323155524953746f726167653a2055524920736574206f66206e6f6e60008201527f6578697374656e7420746f6b656e000000000000000000000000000000000000602082015250565b7f496e76616c696420706f73742069640000000000000000000000000000000000600082015250565b7f4d757374206f776e20746865204e465420796f752077616e7420746f2073657460008201527f20617320796f75722070726f66696c6500000000000000000000000000000000602082015250565b7f4552433732313a206d696e7420746f20746865207a65726f2061646472657373600082015250565b7f4d757374206f776e206120446563656e74726174776974746572204e4654207460008201527f6f20706f73740000000000000000000000000000000000000000000000000000602082015250565b7f43616e6e6f74207061737320616e20656d707479206861736800000000000000600082015250565b7f4552433732313a20696e76616c696420746f6b656e2049440000000000000000600082015250565b7f4552433732313a20617070726f76616c20746f2063757272656e74206f776e6560008201527f7200000000000000000000000000000000000000000000000000000000000000602082015250565b7f4576656e742069732066756c6c00000000000000000000000000000000000000600082015250565b7f496e73756666696369656e742066656520746f206a6f696e207468652065766560008201527f6e74000000000000000000000000000000000000000000000000000000000000602082015250565b7f43616e6e6f742074697020796f7572206f776e20706f73740000000000000000600082015250565b7f4552433732313a20617070726f76652063616c6c6572206973206e6f7420746f60008201527f6b656e206f776e6572206f7220617070726f76656420666f7220616c6c000000602082015250565b614a8c81614314565b8114614a9757600080fd5b50565b614aa381614338565b8114614aae57600080fd5b50565b614aba81614344565b8114614ac557600080fd5b50565b614ad181614390565b8114614adc57600080fd5b5056fea2646970667358221220c1b38eb5ae32a4415859d7b2aa9dc283981cb62f9aa64dfec2520400fb0ac4a064736f6c63430008040033",
  "linkReferences": {},
  "deployedLinkReferences": {}
}